{
  "abi": [
    {
      "inputs": [
        {
          "internalType": "address",
          "name": "_lendToken",
          "type": "address"
        }
      ],
      "stateMutability": "payable",
      "type": "constructor"
    },
    {
      "inputs": [],
      "name": "ethReserve",
      "outputs": [
        {
          "internalType": "uint256",
          "name": "",
          "type": "uint256"
        }
      ],
      "stateMutability": "view",
      "type": "function"
    },
    {
      "inputs": [
        {
          "internalType": "uint256",
          "name": "_ethAmountIn",
          "type": "uint256"
        }
      ],
      "name": "getEthToLendTokenPrice",
      "outputs": [
        {
          "internalType": "uint256",
          "name": "lendTokenAmountOut",
          "type": "uint256"
        }
      ],
      "stateMutability": "view",
      "type": "function"
    },
    {
      "inputs": [
        {
          "internalType": "uint256",
          "name": "_lendTokenAmountIn",
          "type": "uint256"
        }
      ],
      "name": "getLendTokenToEthPrice",
      "outputs": [
        {
          "internalType": "uint256",
          "name": "_ethAmountOut",
          "type": "uint256"
        }
      ],
      "stateMutability": "view",
      "type": "function"
    },
    {
      "inputs": [],
      "name": "lendToken",
      "outputs": [
        {
          "internalType": "contract IERC20",
          "name": "",
          "type": "address"
        }
      ],
      "stateMutability": "view",
      "type": "function"
    },
    {
      "inputs": [],
      "name": "lendTokenReserve",
      "outputs": [
        {
          "internalType": "uint256",
          "name": "",
          "type": "uint256"
        }
      ],
      "stateMutability": "view",
      "type": "function"
    },
    {
      "inputs": [
        {
          "internalType": "address",
          "name": "to",
          "type": "address"
        }
      ],
      "name": "swapEthForLendToken",
      "outputs": [
        {
          "internalType": "uint256",
          "name": "lendTokenAmountOut",
          "type": "uint256"
        }
      ],
      "stateMutability": "payable",
      "type": "function"
    },
    {
      "inputs": [
        {
          "internalType": "address",
          "name": "to",
          "type": "address"
        }
      ],
      "name": "swapLendTokenForEth",
      "outputs": [
        {
          "internalType": "uint256",
          "name": "ethAmountOut",
          "type": "uint256"
        }
      ],
      "stateMutability": "nonpayable",
      "type": "function"
    },
    {
      "stateMutability": "payable",
      "type": "receive"
    }
  ],
  "bytecode": {
    "object": "0x60a060405260405162000dee38038062000dee8339810160408190526200002691620003d7565b6001600160a01b0381166080526801158e460913d0000034146200009f5760405162461bcd60e51b815260206004820152602560248201527f53656e6420323020657468657220666f7220696e697469616c20457468207265604482015264736572766560d81b60648201526084015b60405180910390fd5b6801158e460913d000006001819055506815af1d78b58c400000600081905550620000e360805133306815af1d78b58c400000620000ea60201b620004941760201c565b50620004af565b604080516001600160a01b0385811660248301528416604482015260648082018490528251808303909101815260849091019091526020810180516001600160e01b039081166323b872dd60e01b179091526200014a9186916200015016565b50505050565b6000620001ac826040518060400160405280602081526020017f5361666545524332303a206c6f772d6c6576656c2063616c6c206661696c6564815250856001600160a01b03166200023360201b620004f4179092919060201c565b8051909150156200022e5780806020019051810190620001cd919062000409565b6200022e5760405162461bcd60e51b815260206004820152602a60248201527f5361666545524332303a204552433230206f7065726174696f6e20646964206e6044820152691bdd081cdd58d8d9595960b21b606482015260840162000096565b505050565b60606200024484846000856200024c565b949350505050565b606082471015620002af5760405162461bcd60e51b815260206004820152602660248201527f416464726573733a20696e73756666696369656e742062616c616e636520666f6044820152651c8818d85b1b60d21b606482015260840162000096565b600080866001600160a01b03168587604051620002cd91906200045c565b60006040518083038185875af1925050503d80600081146200030c576040519150601f19603f3d011682016040523d82523d6000602084013e62000311565b606091505b509092509050620003258783838762000330565b979650505050505050565b60608315620003a45782516000036200039c576001600160a01b0385163b6200039c5760405162461bcd60e51b815260206004820152601d60248201527f416464726573733a2063616c6c20746f206e6f6e2d636f6e7472616374000000604482015260640162000096565b508162000244565b620002448383815115620003bb5781518083602001fd5b8060405162461bcd60e51b81526004016200009691906200047a565b600060208284031215620003ea57600080fd5b81516001600160a01b03811681146200040257600080fd5b9392505050565b6000602082840312156200041c57600080fd5b815180151581146200040257600080fd5b60005b838110156200044a57818101518382015260200162000430565b838111156200014a5750506000910152565b60008251620004708184602087016200042d565b9190910192915050565b60208152600082518060208401526200049b8160408501602087016200042d565b601f01601f19169190910160400192915050565b608051610916620004d86000396000818160c5015281816101a201526103db01526109166000f3fe6080604052600436106100745760003560e01c8063a5db21711161004e578063a5db217114610115578063d62ccb3f14610128578063e3b004811461013e578063ece214491461015e57600080fd5b8063175de653146100805780631d4b1519146100b357806370a8a4e6146100ff57600080fd5b3661007b57005b600080fd5b34801561008c57600080fd5b506100a061009b36600461075b565b61017e565b6040519081526020015b60405180910390f35b3480156100bf57600080fd5b506100e77f000000000000000000000000000000000000000000000000000000000000000081565b6040516001600160a01b0390911681526020016100aa565b34801561010b57600080fd5b506100a060005481565b6100a061012336600461075b565b61030d565b34801561013457600080fd5b506100a060015481565b34801561014a57600080fd5b506100a061015936600461078b565b610448565b34801561016a57600080fd5b506100a061017936600461078b565b610476565b600080546040516370a0823160e01b81523060048201528291906001600160a01b037f000000000000000000000000000000000000000000000000000000000000000016906370a0823190602401602060405180830381865afa1580156101e9573d6000803e3d6000fd5b505050506040513d601f19601f8201168201806040525081019061020d91906107a4565b61021791906107d3565b90506000811161026e5760405162461bcd60e51b815260206004820152601860248201527f416d6f756e7420696e2063616e6e6f74206265207a65726f000000000000000060448201526064015b60405180910390fd5b61027781610448565b91508060008082825461028a91906107ea565b9250508190555081600160008282546102a391906107d3565b90915550506040516000906001600160a01b0385169084908381818185875af1925050503d80600081146102f3576040519150601f19603f3d011682016040523d82523d6000602084013e6102f8565b606091505b505090508061030657600080fd5b5050919050565b6000806001544761031e91906107d3565b90506000811161037b5760405162461bcd60e51b815260206004820152602260248201527f416d6f756e742073686f756c642062652067726561746572207468616e207a65604482015261726f60f01b6064820152608401610265565b61038481610476565b9150346001600082825461039891906107ea565b92505081905550816000808282546103b091906107d3565b909155505060405163a9059cbb60e01b81526001600160a01b038481166004830152602482018490527f0000000000000000000000000000000000000000000000000000000000000000169063a9059cbb906044016020604051808303816000875af1158015610424573d6000803e3d6000fd5b505050506040513d601f19601f820116820180604052508101906103069190610802565b60008160005461045891906107ea565b826001546104669190610824565b6104709190610843565b92915050565b60008160015461048691906107ea565b826000546104669190610824565b604080516001600160a01b0385811660248301528416604482015260648082018490528251808303909101815260849091019091526020810180516001600160e01b03166323b872dd60e01b1790526104ee90859061050b565b50505050565b606061050384846000856105e2565b949350505050565b6000610560826040518060400160405280602081526020017f5361666545524332303a206c6f772d6c6576656c2063616c6c206661696c6564815250856001600160a01b03166104f49092919063ffffffff16565b8051909150156105dd578080602001905181019061057e9190610802565b6105dd5760405162461bcd60e51b815260206004820152602a60248201527f5361666545524332303a204552433230206f7065726174696f6e20646964206e6044820152691bdd081cdd58d8d9595960b21b6064820152608401610265565b505050565b6060824710156106435760405162461bcd60e51b815260206004820152602660248201527f416464726573733a20696e73756666696369656e742062616c616e636520666f6044820152651c8818d85b1b60d21b6064820152608401610265565b600080866001600160a01b0316858760405161065f9190610891565b60006040518083038185875af1925050503d806000811461069c576040519150601f19603f3d011682016040523d82523d6000602084013e6106a1565b606091505b50915091506106b2878383876106bd565b979650505050505050565b6060831561072c578251600003610725576001600160a01b0385163b6107255760405162461bcd60e51b815260206004820152601d60248201527f416464726573733a2063616c6c20746f206e6f6e2d636f6e74726163740000006044820152606401610265565b5081610503565b61050383838151156107415781518083602001fd5b8060405162461bcd60e51b815260040161026591906108ad565b60006020828403121561076d57600080fd5b81356001600160a01b038116811461078457600080fd5b9392505050565b60006020828403121561079d57600080fd5b5035919050565b6000602082840312156107b657600080fd5b5051919050565b634e487b7160e01b600052601160045260246000fd5b6000828210156107e5576107e56107bd565b500390565b600082198211156107fd576107fd6107bd565b500190565b60006020828403121561081457600080fd5b8151801515811461078457600080fd5b600081600019048311821515161561083e5761083e6107bd565b500290565b60008261086057634e487b7160e01b600052601260045260246000fd5b500490565b60005b83811015610880578181015183820152602001610868565b838111156104ee5750506000910152565b600082516108a3818460208701610865565b9190910192915050565b60208152600082518060208401526108cc816040850160208701610865565b601f01601f1916919091016040019291505056fea26469706673582212208b81389a7257c1c10992111cb26c4c4b97883d578186b376178ec43a1ff710b364736f6c634300080f0033",
    "linkReferences": {}
  },
  "methodIdentifiers": {
    "ethReserve()": "d62ccb3f",
    "getEthToLendTokenPrice(uint256)": "ece21449",
    "getLendTokenToEthPrice(uint256)": "e3b00481",
    "lendToken()": "1d4b1519",
    "lendTokenReserve()": "70a8a4e6",
    "swapEthForLendToken(address)": "a5db2171",
    "swapLendTokenForEth(address)": "175de653"
  },
  "id": 26
}