{
  "abi": [
    {
      "inputs": [
        {
          "internalType": "address[]",
          "name": "supportedTokens_",
          "type": "address[]"
        },
        {
          "internalType": "uint256",
          "name": "fee_",
          "type": "uint256"
        }
      ],
      "stateMutability": "nonpayable",
      "type": "constructor"
    },
    {
      "inputs": [],
      "name": "CALLBACK_SUCCESS",
      "outputs": [
        {
          "internalType": "bytes32",
          "name": "",
          "type": "bytes32"
        }
      ],
      "stateMutability": "view",
      "type": "function"
    },
    {
      "inputs": [],
      "name": "fee",
      "outputs": [
        {
          "internalType": "uint256",
          "name": "",
          "type": "uint256"
        }
      ],
      "stateMutability": "view",
      "type": "function"
    },
    {
      "inputs": [
        {
          "internalType": "address",
          "name": "token",
          "type": "address"
        },
        {
          "internalType": "uint256",
          "name": "amount",
          "type": "uint256"
        }
      ],
      "name": "flashFee",
      "outputs": [
        {
          "internalType": "uint256",
          "name": "",
          "type": "uint256"
        }
      ],
      "stateMutability": "view",
      "type": "function"
    },
    {
      "inputs": [
        {
          "internalType": "contract IERC3156FlashBorrower",
          "name": "receiver",
          "type": "address"
        },
        {
          "internalType": "address",
          "name": "token",
          "type": "address"
        },
        {
          "internalType": "uint256",
          "name": "amount",
          "type": "uint256"
        },
        {
          "internalType": "bytes",
          "name": "data",
          "type": "bytes"
        }
      ],
      "name": "flashLoan",
      "outputs": [
        {
          "internalType": "bool",
          "name": "",
          "type": "bool"
        }
      ],
      "stateMutability": "nonpayable",
      "type": "function"
    },
    {
      "inputs": [
        {
          "internalType": "address",
          "name": "token",
          "type": "address"
        }
      ],
      "name": "maxFlashLoan",
      "outputs": [
        {
          "internalType": "uint256",
          "name": "",
          "type": "uint256"
        }
      ],
      "stateMutability": "view",
      "type": "function"
    },
    {
      "inputs": [
        {
          "internalType": "address",
          "name": "",
          "type": "address"
        }
      ],
      "name": "supportedTokens",
      "outputs": [
        {
          "internalType": "bool",
          "name": "",
          "type": "bool"
        }
      ],
      "stateMutability": "view",
      "type": "function"
    }
  ],
  "bytecode": {
    "object": "0x608060405234801561001057600080fd5b5060405161095c38038061095c83398101604081905261002f916100d2565b60005b82518110156100965760016000808584815181106100525761005261019e565b6020908102919091018101516001600160a01b03168252810191909152604001600020805460ff19169115159190911790558061008e816101b4565b915050610032565b50600155506101db565b634e487b7160e01b600052604160045260246000fd5b80516001600160a01b03811681146100cd57600080fd5b919050565b600080604083850312156100e557600080fd5b82516001600160401b03808211156100fc57600080fd5b818501915085601f83011261011057600080fd5b8151602082821115610124576101246100a0565b8160051b604051601f19603f83011681018181108682111715610149576101496100a0565b60405292835281830193508481018201928984111561016757600080fd5b948201945b8386101561018c5761017d866100b6565b8552948201949382019361016c565b97909101519698969750505050505050565b634e487b7160e01b600052603260045260246000fd5b6000600182016101d457634e487b7160e01b600052601160045260246000fd5b5060010190565b610772806101ea6000396000f3fe608060405234801561001057600080fd5b50600436106100625760003560e01c80635cffe9de14610067578063613255ab1461008f57806368c4ac26146100b05780638237e538146100d3578063d9d98ce4146100fa578063ddca3f431461010d575b600080fd5b61007a61007536600461050d565b610116565b60405190151581526020015b60405180910390f35b6100a261009d3660046105ac565b6103fa565b604051908152602001610086565b61007a6100be3660046105ac565b60006020819052908152604090205460ff1681565b6100a27f439148f0bbc682ca079e46d6e2c2f0c1e3b820f1a291b069d8882abf8cf18dd981565b6100a26101083660046105c9565b61048f565b6100a260015481565b6001600160a01b03841660009081526020819052604081205460ff166101575760405162461bcd60e51b815260040161014e906105f5565b60405180910390fd5b600061016386866104d8565b60405163a9059cbb60e01b81526001600160a01b038981166004830152602482018890529192509087169063a9059cbb906044016020604051808303816000875af11580156101b6573d6000803e3d6000fd5b505050506040513d601f19601f820116820180604052508101906101da9190610636565b6102265760405162461bcd60e51b815260206004820152601c60248201527f466c6173684c656e6465723a205472616e73666572206661696c656400000000604482015260640161014e565b6040516323e30c8b60e01b81527f439148f0bbc682ca079e46d6e2c2f0c1e3b820f1a291b069d8882abf8cf18dd9906001600160a01b038916906323e30c8b9061027e9033908b908b9088908c908c90600401610658565b6020604051808303816000875af115801561029d573d6000803e3d6000fd5b505050506040513d601f19601f820116820180604052508101906102c191906106b4565b1461030e5760405162461bcd60e51b815260206004820152601c60248201527f466c6173684c656e6465723a2043616c6c6261636b206661696c656400000000604482015260640161014e565b6001600160a01b0386166323b872dd8830610329858a6106e3565b6040516001600160e01b031960e086901b1681526001600160a01b03938416600482015292909116602483015260448201526064016020604051808303816000875af115801561037d573d6000803e3d6000fd5b505050506040513d601f19601f820116820180604052508101906103a19190610636565b6103ed5760405162461bcd60e51b815260206004820152601960248201527f466c6173684c656e6465723a205265706179206661696c656400000000000000604482015260640161014e565b5060019695505050505050565b6001600160a01b03811660009081526020819052604081205460ff16610421576000610489565b6040516370a0823160e01b81523060048201526001600160a01b038316906370a0823190602401602060405180830381865afa158015610465573d6000803e3d6000fd5b505050506040513d601f19601f8201168201806040525081019061048991906106b4565b92915050565b6001600160a01b03821660009081526020819052604081205460ff166104c75760405162461bcd60e51b815260040161014e906105f5565b6104d183836104d8565b9392505050565b6000612710600154836104eb91906106fb565b6104d1919061071a565b6001600160a01b038116811461050a57600080fd5b50565b60008060008060006080868803121561052557600080fd5b8535610530816104f5565b94506020860135610540816104f5565b935060408601359250606086013567ffffffffffffffff8082111561056457600080fd5b818801915088601f83011261057857600080fd5b81358181111561058757600080fd5b89602082850101111561059957600080fd5b9699959850939650602001949392505050565b6000602082840312156105be57600080fd5b81356104d1816104f5565b600080604083850312156105dc57600080fd5b82356105e7816104f5565b946020939093013593505050565b60208082526021908201527f466c6173684c656e6465723a20556e737570706f727465642063757272656e636040820152607960f81b606082015260800190565b60006020828403121561064857600080fd5b815180151581146104d157600080fd5b6001600160a01b03878116825286166020820152604081018590526060810184905260a06080820181905281018290526000828460c0840137600060c0848401015260c0601f19601f8501168301019050979650505050505050565b6000602082840312156106c657600080fd5b5051919050565b634e487b7160e01b600052601160045260246000fd5b600082198211156106f6576106f66106cd565b500190565b6000816000190483118215151615610715576107156106cd565b500290565b60008261073757634e487b7160e01b600052601260045260246000fd5b50049056fea2646970667358221220cca97746d48bff41e853bc80fd9b735350296c6056ad75e15469a99001b6f41f64736f6c634300080f0033",
    "linkReferences": {}
  },
  "methodIdentifiers": {
    "CALLBACK_SUCCESS()": "8237e538",
    "fee()": "ddca3f43",
    "flashFee(address,uint256)": "d9d98ce4",
    "flashLoan(address,address,uint256,bytes)": "5cffe9de",
    "maxFlashLoan(address)": "613255ab",
    "supportedTokens(address)": "68c4ac26"
  },
  "id": 29
}