{
  "abi": [
    {
      "inputs": [
        {
          "internalType": "contract IERC721",
          "name": "_nft",
          "type": "address"
        }
      ],
      "stateMutability": "nonpayable",
      "type": "constructor"
    },
    {
      "inputs": [],
      "name": "REWARD_RATE",
      "outputs": [
        {
          "internalType": "uint256",
          "name": "",
          "type": "uint256"
        }
      ],
      "stateMutability": "view",
      "type": "function"
    },
    {
      "inputs": [
        {
          "internalType": "uint256",
          "name": "",
          "type": "uint256"
        }
      ],
      "name": "alreadyUsed",
      "outputs": [
        {
          "internalType": "bool",
          "name": "",
          "type": "bool"
        }
      ],
      "stateMutability": "view",
      "type": "function"
    },
    {
      "inputs": [
        {
          "internalType": "uint256",
          "name": "_tokenId",
          "type": "uint256"
        }
      ],
      "name": "claimEarnings",
      "outputs": [],
      "stateMutability": "nonpayable",
      "type": "function"
    },
    {
      "inputs": [],
      "name": "nft",
      "outputs": [
        {
          "internalType": "contract IERC721",
          "name": "",
          "type": "address"
        }
      ],
      "stateMutability": "view",
      "type": "function"
    },
    {
      "inputs": [
        {
          "internalType": "address",
          "name": "",
          "type": "address"
        },
        {
          "internalType": "address",
          "name": "from",
          "type": "address"
        },
        {
          "internalType": "uint256",
          "name": "tokenId",
          "type": "uint256"
        },
        {
          "internalType": "bytes",
          "name": "",
          "type": "bytes"
        }
      ],
      "name": "onERC721Received",
      "outputs": [
        {
          "internalType": "bytes4",
          "name": "",
          "type": "bytes4"
        }
      ],
      "stateMutability": "nonpayable",
      "type": "function"
    },
    {
      "inputs": [],
      "name": "rewardToken",
      "outputs": [
        {
          "internalType": "contract IERC20",
          "name": "",
          "type": "address"
        }
      ],
      "stateMutability": "view",
      "type": "function"
    },
    {
      "inputs": [
        {
          "internalType": "contract IERC20",
          "name": "_rewardToken",
          "type": "address"
        }
      ],
      "name": "setRewardToken",
      "outputs": [],
      "stateMutability": "nonpayable",
      "type": "function"
    },
    {
      "inputs": [
        {
          "internalType": "address",
          "name": "",
          "type": "address"
        }
      ],
      "name": "stakes",
      "outputs": [
        {
          "internalType": "uint256",
          "name": "depositTime",
          "type": "uint256"
        },
        {
          "internalType": "uint256",
          "name": "tokenId",
          "type": "uint256"
        }
      ],
      "stateMutability": "view",
      "type": "function"
    },
    {
      "inputs": [
        {
          "internalType": "uint256",
          "name": "_tokenId",
          "type": "uint256"
        }
      ],
      "name": "withdrawAndClaimEarnings",
      "outputs": [],
      "stateMutability": "nonpayable",
      "type": "function"
    }
  ],
  "bytecode": {
    "object": "0x608060405234801561001057600080fd5b506040516108d73803806108d783398101604081905261002f91610087565b600080546001600160a01b0319166001600160a01b0392909216919091178155805260026020527fac33ff75c19e70fe83507db0d683fd3465c996598dc972688b7ace676c89077b805460ff191660011790556100b7565b60006020828403121561009957600080fd5b81516001600160a01b03811681146100b057600080fd5b9392505050565b610811806100c66000396000f3fe608060405234801561001057600080fd5b50600436106100935760003560e01c806347ccca021161006657806347ccca021461014d5780635997bb37146101785780638aee81271461018e578063d83ba737146101a1578063f7c618c1146101b457600080fd5b80630a122b4f14610098578063150b7a02146100d057806316934fc4146100fc57806324b1babf14610138575b600080fd5b6100bb6100a636600461063e565b60026020526000908152604090205460ff1681565b60405190151581526020015b60405180910390f35b6100e36100de36600461066f565b6101c7565b6040516001600160e01b031990911681526020016100c7565b61012361010a36600461070e565b6003602052600090815260409020805460019091015482565b604080519283526020830191909152016100c7565b61014b61014636600461063e565b6102c5565b005b600054610160906001600160a01b031681565b6040516001600160a01b0390911681526020016100c7565b61018061033e565b6040519081526020016100c7565b61014b61019c36600461070e565b610356565b61014b6101af36600461063e565b610396565b600154610160906001600160a01b031681565b600080546001600160a01b031633146102135760405162461bcd60e51b81526020600482015260096024820152681ddc9bdb99c813919560ba1b60448201526064015b60405180910390fd5b60008481526002602052604090205460ff16156102685760405162461bcd60e51b815260206004820152601360248201527263616e206f6e6c79207374616b65206f6e636560681b604482015260640161020a565b5050506000818152600260209081526040808320805460ff19166001908117909155815180830183524281528084019586526001600160a01b03969096168452600390925290912092518355905191015550630a85bd0160e11b90565b33600090815260036020526040902060010154811480156102e557508015155b6103205760405162461bcd60e51b815260206004820152600c60248201526b1b9bdd081e5bdd5c8813919560a21b604482015260640161020a565b6103293361047d565b50336000908152600360205260409020429055565b61035362015180678ac7230489e80000610748565b81565b600154600160a01b900460ff161561036d57600080fd5b600180546001600160a01b039092166001600160a81b031990921691909117600160a01b179055565b33600090815260036020526040902060010154811480156103b657508015155b6103f15760405162461bcd60e51b815260206004820152600c60248201526b1b9bdd081e5bdd5c8813919560a21b604482015260640161020a565b6103fa3361047d565b600054604051632142170760e11b8152306004820152336024820152604481018390526001600160a01b03909116906342842e0e90606401600060405180830381600087803b15801561044c57600080fd5b505af1158015610460573d6000803e3d6000fd5b505033600090815260036020526040812081815560010155505050565b600061049462015180678ac7230489e80000610748565b6001600160a01b0383166000908152600360205260409020546104b7904261076a565b6104c19190610781565b90506802b5e3af16b18800008111156104e057506802b5e3af16b18800005b6001546040516370a0823160e01b81523060048201526001600160a01b03909116906370a0823190602401602060405180830381865afa158015610528573d6000803e3d6000fd5b505050506040513d601f19601f8201168201806040525081019061054c91906107a0565b8111156105c2576001546040516370a0823160e01b81523060048201526001600160a01b03909116906370a0823190602401602060405180830381865afa15801561059b573d6000803e3d6000fd5b505050506040513d601f19601f820116820180604052508101906105bf91906107a0565b90505b60015460405163a9059cbb60e01b81526001600160a01b038481166004830152602482018490529091169063a9059cbb906044016020604051808303816000875af1158015610615573d6000803e3d6000fd5b505050506040513d601f19601f8201168201806040525081019061063991906107b9565b505050565b60006020828403121561065057600080fd5b5035919050565b6001600160a01b038116811461066c57600080fd5b50565b60008060008060006080868803121561068757600080fd5b853561069281610657565b945060208601356106a281610657565b935060408601359250606086013567ffffffffffffffff808211156106c657600080fd5b818801915088601f8301126106da57600080fd5b8135818111156106e957600080fd5b8960208285010111156106fb57600080fd5b9699959850939650602001949392505050565b60006020828403121561072057600080fd5b813561072b81610657565b9392505050565b634e487b7160e01b600052601160045260246000fd5b60008261076557634e487b7160e01b600052601260045260246000fd5b500490565b60008282101561077c5761077c610732565b500390565b600081600019048311821515161561079b5761079b610732565b500290565b6000602082840312156107b257600080fd5b5051919050565b6000602082840312156107cb57600080fd5b8151801515811461072b57600080fdfea2646970667358221220b03d7d789586fd5444890588f88917f496f7a80e3cedfbd83db9d614cc74a88364736f6c634300080f0033",
    "linkReferences": {}
  },
  "methodIdentifiers": {
    "REWARD_RATE()": "5997bb37",
    "alreadyUsed(uint256)": "0a122b4f",
    "claimEarnings(uint256)": "24b1babf",
    "nft()": "47ccca02",
    "onERC721Received(address,address,uint256,bytes)": "150b7a02",
    "rewardToken()": "f7c618c1",
    "setRewardToken(address)": "8aee8127",
    "stakes(address)": "16934fc4",
    "withdrawAndClaimEarnings(uint256)": "d83ba737"
  },
  "id": 32
}