{
  "abi": [
    {
      "inputs": [
        {
          "internalType": "address",
          "name": "depositoor",
          "type": "address"
        }
      ],
      "stateMutability": "nonpayable",
      "type": "constructor"
    },
    {
      "anonymous": false,
      "inputs": [
        {
          "indexed": true,
          "internalType": "address",
          "name": "owner",
          "type": "address"
        },
        {
          "indexed": true,
          "internalType": "address",
          "name": "spender",
          "type": "address"
        },
        {
          "indexed": false,
          "internalType": "uint256",
          "name": "value",
          "type": "uint256"
        }
      ],
      "name": "Approval",
      "type": "event"
    },
    {
      "anonymous": false,
      "inputs": [
        {
          "indexed": true,
          "internalType": "address",
          "name": "from",
          "type": "address"
        },
        {
          "indexed": true,
          "internalType": "address",
          "name": "to",
          "type": "address"
        },
        {
          "indexed": false,
          "internalType": "uint256",
          "name": "value",
          "type": "uint256"
        }
      ],
      "name": "Transfer",
      "type": "event"
    },
    {
      "inputs": [
        {
          "internalType": "address",
          "name": "owner",
          "type": "address"
        },
        {
          "internalType": "address",
          "name": "spender",
          "type": "address"
        }
      ],
      "name": "allowance",
      "outputs": [
        {
          "internalType": "uint256",
          "name": "",
          "type": "uint256"
        }
      ],
      "stateMutability": "view",
      "type": "function"
    },
    {
      "inputs": [
        {
          "internalType": "address",
          "name": "spender",
          "type": "address"
        },
        {
          "internalType": "uint256",
          "name": "amount",
          "type": "uint256"
        }
      ],
      "name": "approve",
      "outputs": [
        {
          "internalType": "bool",
          "name": "",
          "type": "bool"
        }
      ],
      "stateMutability": "nonpayable",
      "type": "function"
    },
    {
      "inputs": [
        {
          "internalType": "address",
          "name": "account",
          "type": "address"
        }
      ],
      "name": "balanceOf",
      "outputs": [
        {
          "internalType": "uint256",
          "name": "",
          "type": "uint256"
        }
      ],
      "stateMutability": "view",
      "type": "function"
    },
    {
      "inputs": [],
      "name": "cap",
      "outputs": [
        {
          "internalType": "uint256",
          "name": "",
          "type": "uint256"
        }
      ],
      "stateMutability": "view",
      "type": "function"
    },
    {
      "inputs": [],
      "name": "decimals",
      "outputs": [
        {
          "internalType": "uint8",
          "name": "",
          "type": "uint8"
        }
      ],
      "stateMutability": "view",
      "type": "function"
    },
    {
      "inputs": [
        {
          "internalType": "address",
          "name": "spender",
          "type": "address"
        },
        {
          "internalType": "uint256",
          "name": "subtractedValue",
          "type": "uint256"
        }
      ],
      "name": "decreaseAllowance",
      "outputs": [
        {
          "internalType": "bool",
          "name": "",
          "type": "bool"
        }
      ],
      "stateMutability": "nonpayable",
      "type": "function"
    },
    {
      "inputs": [
        {
          "internalType": "address",
          "name": "spender",
          "type": "address"
        },
        {
          "internalType": "uint256",
          "name": "addedValue",
          "type": "uint256"
        }
      ],
      "name": "increaseAllowance",
      "outputs": [
        {
          "internalType": "bool",
          "name": "",
          "type": "bool"
        }
      ],
      "stateMutability": "nonpayable",
      "type": "function"
    },
    {
      "inputs": [],
      "name": "name",
      "outputs": [
        {
          "internalType": "string",
          "name": "",
          "type": "string"
        }
      ],
      "stateMutability": "view",
      "type": "function"
    },
    {
      "inputs": [],
      "name": "symbol",
      "outputs": [
        {
          "internalType": "string",
          "name": "",
          "type": "string"
        }
      ],
      "stateMutability": "view",
      "type": "function"
    },
    {
      "inputs": [],
      "name": "totalSupply",
      "outputs": [
        {
          "internalType": "uint256",
          "name": "",
          "type": "uint256"
        }
      ],
      "stateMutability": "view",
      "type": "function"
    },
    {
      "inputs": [
        {
          "internalType": "address",
          "name": "to",
          "type": "address"
        },
        {
          "internalType": "uint256",
          "name": "amount",
          "type": "uint256"
        }
      ],
      "name": "transfer",
      "outputs": [
        {
          "internalType": "bool",
          "name": "",
          "type": "bool"
        }
      ],
      "stateMutability": "nonpayable",
      "type": "function"
    },
    {
      "inputs": [
        {
          "internalType": "address",
          "name": "from",
          "type": "address"
        },
        {
          "internalType": "address",
          "name": "to",
          "type": "address"
        },
        {
          "internalType": "uint256",
          "name": "amount",
          "type": "uint256"
        }
      ],
      "name": "transferFrom",
      "outputs": [
        {
          "internalType": "bool",
          "name": "",
          "type": "bool"
        }
      ],
      "stateMutability": "nonpayable",
      "type": "function"
    }
  ],
  "bytecode": {
    "object": "0x60a06040523480156200001157600080fd5b5060405162000d1438038062000d148339810160408190526200003491620001e3565b683635c9adc5dea00000604051806040016040528060058152602001642a37b5b2b760d91b81525060405180604001604052806002815260200161544b60f01b8152508160039081620000889190620002b9565b506004620000978282620002b9565b50505060008111620000f05760405162461bcd60e51b815260206004820152601560248201527f45524332304361707065643a206361702069732030000000000000000000000060448201526064015b60405180910390fd5b608052620001148168056bc75e2d631000006200011b602090811b6200038917901c565b50620003ac565b6001600160a01b038216620001735760405162461bcd60e51b815260206004820152601f60248201527f45524332303a206d696e7420746f20746865207a65726f2061646472657373006044820152606401620000e7565b806002600082825462000187919062000385565b90915550506001600160a01b038216600081815260208181526040808320805486019055518481527fddf252ad1be2c89b69c2b068fc378daa952ba7f163c4a11628f55a4df523b3ef910160405180910390a35050565b505050565b600060208284031215620001f657600080fd5b81516001600160a01b03811681146200020e57600080fd5b9392505050565b634e487b7160e01b600052604160045260246000fd5b600181811c908216806200024057607f821691505b6020821081036200026157634e487b7160e01b600052602260045260246000fd5b50919050565b601f821115620001de57600081815260208120601f850160051c81016020861015620002905750805b601f850160051c820191505b81811015620002b1578281556001016200029c565b505050505050565b81516001600160401b03811115620002d557620002d562000215565b620002ed81620002e684546200022b565b8462000267565b602080601f8311600181146200032557600084156200030c5750858301515b600019600386901b1c1916600185901b178555620002b1565b600085815260208120601f198616915b82811015620003565788860151825594840194600190910190840162000335565b5085821015620003755787850151600019600388901b60f8161c191681555b5050505050600190811b01905550565b60008219821115620003a757634e487b7160e01b600052601160045260246000fd5b500190565b60805161094c620003c86000396000610130015261094c6000f3fe608060405234801561001057600080fd5b50600436106100b45760003560e01c80633950935111610071578063395093511461015457806370a082311461016757806395d89b4114610190578063a457c2d714610198578063a9059cbb146101ab578063dd62ed3e146101be57600080fd5b806306fdde03146100b9578063095ea7b3146100d757806318160ddd146100fa57806323b872dd1461010c578063313ce5671461011f578063355274ea1461012e575b600080fd5b6100c16101d1565b6040516100ce919061078a565b60405180910390f35b6100ea6100e53660046107fb565b610263565b60405190151581526020016100ce565b6002545b6040519081526020016100ce565b6100ea61011a366004610825565b61027b565b604051601281526020016100ce565b7f00000000000000000000000000000000000000000000000000000000000000006100fe565b6100ea6101623660046107fb565b61029f565b6100fe610175366004610861565b6001600160a01b031660009081526020819052604090205490565b6100c16102c1565b6100ea6101a63660046107fb565b6102d0565b6100ea6101b93660046107fb565b610350565b6100fe6101cc366004610883565b61035e565b6060600380546101e0906108b6565b80601f016020809104026020016040519081016040528092919081815260200182805461020c906108b6565b80156102595780601f1061022e57610100808354040283529160200191610259565b820191906000526020600020905b81548152906001019060200180831161023c57829003601f168201915b5050505050905090565b600033610271818585610448565b5060019392505050565b60003361028985828561056c565b6102948585856105e6565b506001949350505050565b6000336102718185856102b2838361035e565b6102bc91906108f0565b610448565b6060600480546101e0906108b6565b600033816102de828661035e565b9050838110156103435760405162461bcd60e51b815260206004820152602560248201527f45524332303a2064656372656173656420616c6c6f77616e63652062656c6f77604482015264207a65726f60d81b60648201526084015b60405180910390fd5b6102948286868403610448565b6000336102718185856105e6565b6001600160a01b03918216600090815260016020908152604080832093909416825291909152205490565b6001600160a01b0382166103df5760405162461bcd60e51b815260206004820152601f60248201527f45524332303a206d696e7420746f20746865207a65726f206164647265737300604482015260640161033a565b80600260008282546103f191906108f0565b90915550506001600160a01b038216600081815260208181526040808320805486019055518481527fddf252ad1be2c89b69c2b068fc378daa952ba7f163c4a11628f55a4df523b3ef910160405180910390a35050565b6001600160a01b0383166104aa5760405162461bcd60e51b8152602060048201526024808201527f45524332303a20617070726f76652066726f6d20746865207a65726f206164646044820152637265737360e01b606482015260840161033a565b6001600160a01b03821661050b5760405162461bcd60e51b815260206004820152602260248201527f45524332303a20617070726f766520746f20746865207a65726f206164647265604482015261737360f01b606482015260840161033a565b6001600160a01b0383811660008181526001602090815260408083209487168084529482529182902085905590518481527f8c5be1e5ebec7d5bd14f71427d1e84f3dd0314c0f7b2291e5b200ac8c7c3b925910160405180910390a3505050565b6000610578848461035e565b905060001981146105e057818110156105d35760405162461bcd60e51b815260206004820152601d60248201527f45524332303a20696e73756666696369656e7420616c6c6f77616e6365000000604482015260640161033a565b6105e08484848403610448565b50505050565b6001600160a01b03831661064a5760405162461bcd60e51b815260206004820152602560248201527f45524332303a207472616e736665722066726f6d20746865207a65726f206164604482015264647265737360d81b606482015260840161033a565b6001600160a01b0382166106ac5760405162461bcd60e51b815260206004820152602360248201527f45524332303a207472616e7366657220746f20746865207a65726f206164647260448201526265737360e81b606482015260840161033a565b6001600160a01b038316600090815260208190526040902054818110156107245760405162461bcd60e51b815260206004820152602660248201527f45524332303a207472616e7366657220616d6f756e7420657863656564732062604482015265616c616e636560d01b606482015260840161033a565b6001600160a01b03848116600081815260208181526040808320878703905593871680835291849020805487019055925185815290927fddf252ad1be2c89b69c2b068fc378daa952ba7f163c4a11628f55a4df523b3ef910160405180910390a36105e0565b600060208083528351808285015260005b818110156107b75785810183015185820160400152820161079b565b818111156107c9576000604083870101525b50601f01601f1916929092016040019392505050565b80356001600160a01b03811681146107f657600080fd5b919050565b6000806040838503121561080e57600080fd5b610817836107df565b946020939093013593505050565b60008060006060848603121561083a57600080fd5b610843846107df565b9250610851602085016107df565b9150604084013590509250925092565b60006020828403121561087357600080fd5b61087c826107df565b9392505050565b6000806040838503121561089657600080fd5b61089f836107df565b91506108ad602084016107df565b90509250929050565b600181811c908216806108ca57607f821691505b6020821081036108ea57634e487b7160e01b600052602260045260246000fd5b50919050565b6000821982111561091157634e487b7160e01b600052601160045260246000fd5b50019056fea26469706673582212208687ef5a7b189149ef535fa001150ae04292059668a17731dff7f87f058ee89664736f6c634300080f0033",
    "linkReferences": {}
  },
  "methodIdentifiers": {
    "allowance(address,address)": "dd62ed3e",
    "approve(address,uint256)": "095ea7b3",
    "balanceOf(address)": "70a08231",
    "cap()": "355274ea",
    "decimals()": "313ce567",
    "decreaseAllowance(address,uint256)": "a457c2d7",
    "increaseAllowance(address,uint256)": "39509351",
    "name()": "06fdde03",
    "symbol()": "95d89b41",
    "totalSupply()": "18160ddd",
    "transfer(address,uint256)": "a9059cbb",
    "transferFrom(address,address,uint256)": "23b872dd"
  },
  "id": 32
}