{
  "abi": [
    {
      "inputs": [
        {
          "internalType": "address",
          "name": "_oracle",
          "type": "address"
        }
      ],
      "stateMutability": "nonpayable",
      "type": "constructor"
    },
    {
      "inputs": [],
      "name": "addLiquidity",
      "outputs": [],
      "stateMutability": "payable",
      "type": "function"
    },
    {
      "inputs": [
        {
          "internalType": "uint256",
          "name": "ethAmount",
          "type": "uint256"
        }
      ],
      "name": "borrowEth",
      "outputs": [
        {
          "internalType": "uint256",
          "name": "lendTokenCollateral",
          "type": "uint256"
        }
      ],
      "stateMutability": "nonpayable",
      "type": "function"
    },
    {
      "inputs": [],
      "name": "lender",
      "outputs": [
        {
          "internalType": "address",
          "name": "",
          "type": "address"
        }
      ],
      "stateMutability": "view",
      "type": "function"
    },
    {
      "inputs": [
        {
          "internalType": "address",
          "name": "borrower",
          "type": "address"
        }
      ],
      "name": "liquidate",
      "outputs": [],
      "stateMutability": "nonpayable",
      "type": "function"
    },
    {
      "inputs": [],
      "name": "oracle",
      "outputs": [
        {
          "internalType": "contract AMM",
          "name": "",
          "type": "address"
        }
      ],
      "stateMutability": "view",
      "type": "function"
    },
    {
      "inputs": [
        {
          "internalType": "uint256",
          "name": "amount",
          "type": "uint256"
        }
      ],
      "name": "removeLiquidity",
      "outputs": [],
      "stateMutability": "nonpayable",
      "type": "function"
    },
    {
      "inputs": [
        {
          "internalType": "address",
          "name": "",
          "type": "address"
        }
      ],
      "name": "userToLoanInfo",
      "outputs": [
        {
          "internalType": "uint256",
          "name": "collateralBalance",
          "type": "uint256"
        },
        {
          "internalType": "uint256",
          "name": "borrowedAmount",
          "type": "uint256"
        }
      ],
      "stateMutability": "view",
      "type": "function"
    },
    {
      "stateMutability": "payable",
      "type": "receive"
    }
  ],
  "bytecode": {
    "object": "0x60c060405234801561001057600080fd5b5060405161104b38038061104b83398101604081905261002f91610044565b6001600160a01b03166080523360a052610074565b60006020828403121561005657600080fd5b81516001600160a01b038116811461006d57600080fd5b9392505050565b60805160a051610f746100d7600039600081816102930152610a0c01526000818160eb015281816101de015281816103ca0152818161044d015281816105410152818161065a015281816107160152818161079d01526109650152610f746000f3fe6080604052600436106100745760003560e01c80639c8f9f231161004e5780639c8f9f2314610218578063ab04aff214610238578063bcead63e14610281578063e8078d941461017257600080fd5b806308554273146101795780632f865568146101ac5780637dc0d1d0146101cc57600080fd5b3661017457336000908152602081905260409020600101543410156100c05733600090815260208190526040812060010180543492906100b5908490610dbe565b909155506101729050565b33600090815260208181526040808320600101929092558151631d4b151960e01b81529151610172927f00000000000000000000000000000000000000000000000000000000000000006001600160a01b031692631d4b1519926004808401938290030181865afa158015610139573d6000803e3d6000fd5b505050506040513d601f19601f8201168201806040525081019061015d9190610ded565b336000818152602081905260409020546102b5565b005b600080fd5b34801561018557600080fd5b50610199610194366004610e11565b61031d565b6040519081526020015b60405180910390f35b3480156101b857600080fd5b506101726101c7366004610e2a565b610619565b3480156101d857600080fd5b506102007f000000000000000000000000000000000000000000000000000000000000000081565b6040516001600160a01b0390911681526020016101a3565b34801561022457600080fd5b50610172610233366004610e11565b610a01565b34801561024457600080fd5b5061026c610253366004610e2a565b6000602081905290815260409020805460019091015482565b604080519283526020830191909152016101a3565b34801561028d57600080fd5b506102007f000000000000000000000000000000000000000000000000000000000000000081565b6040516001600160a01b03831660248201526044810182905261031890849063a9059cbb60e01b906064015b60408051601f198184030181529190526020810180516001600160e01b03166001600160e01b031990931692909217909152610b08565b505050565b6000808211801561032e5750478211155b6103705760405162461bcd60e51b815260206004820152600e60248201526d125b9d985b1a5908185b5bdd5b9d60921b60448201526064015b60405180910390fd5b33600090815260208190526040902060010154156103c65760405162461bcd60e51b81526020600482015260136024820152722932b830bc9032bc34b9ba34b733903637b0b760691b6044820152606401610367565b60007f00000000000000000000000000000000000000000000000000000000000000006001600160a01b031663d62ccb3f6040518163ffffffff1660e01b8152600401602060405180830381865afa158015610426573d6000803e3d6000fd5b505050506040513d601f19601f8201168201806040525081019061044a9190610e47565b837f00000000000000000000000000000000000000000000000000000000000000006001600160a01b03166370a8a4e66040518163ffffffff1660e01b8152600401602060405180830381865afa1580156104a9573d6000803e3d6000fd5b505050506040513d601f19601f820116820180604052508101906104cd9190610e47565b6104d79190610e60565b6104e19190610e7f565b90506103e86104f26107d083610e60565b6104fc9190610e7f565b604080518082018252828152602080820187815233600090815280835284902092518355516001909201919091558151631d4b151960e01b815291519294506105bd927f00000000000000000000000000000000000000000000000000000000000000006001600160a01b031692631d4b15199260048083019391928290030181865afa158015610591573d6000803e3d6000fd5b505050506040513d601f19601f820116820180604052508101906105b59190610ded565b333085610bda565b604051600090339085908381818185875af1925050503d80600081146105ff576040519150601f19603f3d011682016040523d82523d6000602084013e610604565b606091505b505090508061061257600080fd5b5050919050565b6001600160a01b038082166000908152602081815260408083208151808301835281548152600190910154818401528151631d4b151960e01b8152915190947f00000000000000000000000000000000000000000000000000000000000000001692631d4b151992600480820193918290030181865afa1580156106a1573d6000803e3d6000fd5b505050506040513d601f19601f820116820180604052508101906106c59190610ded565b905060008260200151116107125760405162461bcd60e51b81526020600482015260146024820152734e6f7468696e6720746f206c697175696461746560601b6044820152606401610367565b60007f00000000000000000000000000000000000000000000000000000000000000006001600160a01b031663d62ccb3f6040518163ffffffff1660e01b8152600401602060405180830381865afa158015610772573d6000803e3d6000fd5b505050506040513d601f19601f820116820180604052508101906107969190610e47565b83602001517f00000000000000000000000000000000000000000000000000000000000000006001600160a01b03166370a8a4e66040518163ffffffff1660e01b8152600401602060405180830381865afa1580156107f9573d6000803e3d6000fd5b505050506040513d601f19601f8201168201806040525081019061081d9190610e47565b6108279190610e60565b6108319190610e7f565b905060006103e86108446105dc84610e60565b61084e9190610e7f565b90508084600001511061089b5760405162461bcd60e51b8152602060048201526015602482015274139bdd081d5b99195c98dbdb1b185d195c9a5e9959605a1b6044820152606401610367565b6040516370a0823160e01b81523060048201526000906001600160a01b038516906370a0823190602401602060405180830381865afa1580156108e2573d6000803e3d6000fd5b505050506040513d601f19601f820116820180604052508101906109069190610e47565b831115610914578451610916565b825b604080518082018252600080825260208083018281526001600160a01b038c1683529082905292902090518155905160019091015590506109588433836102b5565b845181146109f9576109f97f00000000000000000000000000000000000000000000000000000000000000006001600160a01b0316631d4b15196040518163ffffffff1660e01b8152600401602060405180830381865afa1580156109c1573d6000803e3d6000fd5b505050506040513d601f19601f820116820180604052508101906109e59190610ded565b865133906109f4908790610dbe565b6102b5565b505050505050565b336001600160a01b037f00000000000000000000000000000000000000000000000000000000000000001614610a685760405162461bcd60e51b815260206004820152600c60248201526b15539055551213d49256915160a21b6044820152606401610367565b47811115610aaf5760405162461bcd60e51b8152602060048201526014602482015273496e73756666696369656e742062616c616e636560601b6044820152606401610367565b604051600090339083908381818185875af1925050503d8060008114610af1576040519150601f19603f3d011682016040523d82523d6000602084013e610af6565b606091505b5050905080610b0457600080fd5b5050565b6000610b5d826040518060400160405280602081526020017f5361666545524332303a206c6f772d6c6576656c2063616c6c206661696c6564815250856001600160a01b0316610c189092919063ffffffff16565b8051909150156103185780806020019051810190610b7b9190610ea1565b6103185760405162461bcd60e51b815260206004820152602a60248201527f5361666545524332303a204552433230206f7065726174696f6e20646964206e6044820152691bdd081cdd58d8d9595960b21b6064820152608401610367565b6040516001600160a01b0380851660248301528316604482015260648101829052610c129085906323b872dd60e01b906084016102e1565b50505050565b6060610c278484600085610c2f565b949350505050565b606082471015610c905760405162461bcd60e51b815260206004820152602660248201527f416464726573733a20696e73756666696369656e742062616c616e636520666f6044820152651c8818d85b1b60d21b6064820152608401610367565b600080866001600160a01b03168587604051610cac9190610eef565b60006040518083038185875af1925050503d8060008114610ce9576040519150601f19603f3d011682016040523d82523d6000602084013e610cee565b606091505b5091509150610cff87838387610d0a565b979650505050505050565b60608315610d79578251600003610d72576001600160a01b0385163b610d725760405162461bcd60e51b815260206004820152601d60248201527f416464726573733a2063616c6c20746f206e6f6e2d636f6e74726163740000006044820152606401610367565b5081610c27565b610c278383815115610d8e5781518083602001fd5b8060405162461bcd60e51b81526004016103679190610f0b565b634e487b7160e01b600052601160045260246000fd5b600082821015610dd057610dd0610da8565b500390565b6001600160a01b0381168114610dea57600080fd5b50565b600060208284031215610dff57600080fd5b8151610e0a81610dd5565b9392505050565b600060208284031215610e2357600080fd5b5035919050565b600060208284031215610e3c57600080fd5b8135610e0a81610dd5565b600060208284031215610e5957600080fd5b5051919050565b6000816000190483118215151615610e7a57610e7a610da8565b500290565b600082610e9c57634e487b7160e01b600052601260045260246000fd5b500490565b600060208284031215610eb357600080fd5b81518015158114610e0a57600080fd5b60005b83811015610ede578181015183820152602001610ec6565b83811115610c125750506000910152565b60008251610f01818460208701610ec3565b9190910192915050565b6020815260008251806020840152610f2a816040850160208701610ec3565b601f01601f1916919091016040019291505056fea26469706673582212205aa28c1c21aa31f21dd3ab06fc14414493bc421d261c5b9e62e83ae2603a2b4f64736f6c634300080f0033",
    "linkReferences": {}
  },
  "methodIdentifiers": {
    "addLiquidity()": "e8078d94",
    "borrowEth(uint256)": "08554273",
    "lender()": "bcead63e",
    "liquidate(address)": "2f865568",
    "oracle()": "7dc0d1d0",
    "removeLiquidity(uint256)": "9c8f9f23",
    "userToLoanInfo(address)": "ab04aff2"
  },
  "id": 30
}