{
  "abi": [
    {
      "anonymous": false,
      "inputs": [
        {
          "indexed": true,
          "internalType": "address",
          "name": "owner",
          "type": "address"
        },
        {
          "indexed": true,
          "internalType": "address",
          "name": "spender",
          "type": "address"
        },
        {
          "indexed": false,
          "internalType": "uint256",
          "name": "value",
          "type": "uint256"
        }
      ],
      "name": "Approval",
      "type": "event"
    },
    {
      "anonymous": false,
      "inputs": [
        {
          "indexed": true,
          "internalType": "address",
          "name": "from",
          "type": "address"
        },
        {
          "indexed": true,
          "internalType": "address",
          "name": "to",
          "type": "address"
        },
        {
          "indexed": false,
          "internalType": "uint256",
          "name": "value",
          "type": "uint256"
        }
      ],
      "name": "Transfer",
      "type": "event"
    },
    {
      "inputs": [],
      "name": "addLiquidity",
      "outputs": [],
      "stateMutability": "payable",
      "type": "function"
    },
    {
      "inputs": [
        {
          "internalType": "address",
          "name": "owner",
          "type": "address"
        },
        {
          "internalType": "address",
          "name": "spender",
          "type": "address"
        }
      ],
      "name": "allowance",
      "outputs": [
        {
          "internalType": "uint256",
          "name": "",
          "type": "uint256"
        }
      ],
      "stateMutability": "view",
      "type": "function"
    },
    {
      "inputs": [
        {
          "internalType": "address",
          "name": "spender",
          "type": "address"
        },
        {
          "internalType": "uint256",
          "name": "amount",
          "type": "uint256"
        }
      ],
      "name": "approve",
      "outputs": [
        {
          "internalType": "bool",
          "name": "",
          "type": "bool"
        }
      ],
      "stateMutability": "nonpayable",
      "type": "function"
    },
    {
      "inputs": [
        {
          "internalType": "address",
          "name": "account",
          "type": "address"
        }
      ],
      "name": "balanceOf",
      "outputs": [
        {
          "internalType": "uint256",
          "name": "",
          "type": "uint256"
        }
      ],
      "stateMutability": "view",
      "type": "function"
    },
    {
      "inputs": [],
      "name": "decimals",
      "outputs": [
        {
          "internalType": "uint8",
          "name": "",
          "type": "uint8"
        }
      ],
      "stateMutability": "view",
      "type": "function"
    },
    {
      "inputs": [
        {
          "internalType": "address",
          "name": "spender",
          "type": "address"
        },
        {
          "internalType": "uint256",
          "name": "subtractedValue",
          "type": "uint256"
        }
      ],
      "name": "decreaseAllowance",
      "outputs": [
        {
          "internalType": "bool",
          "name": "",
          "type": "bool"
        }
      ],
      "stateMutability": "nonpayable",
      "type": "function"
    },
    {
      "inputs": [],
      "name": "earnProfit",
      "outputs": [],
      "stateMutability": "payable",
      "type": "function"
    },
    {
      "inputs": [],
      "name": "getVirtualPrice",
      "outputs": [
        {
          "internalType": "uint256",
          "name": "virtualPrice",
          "type": "uint256"
        }
      ],
      "stateMutability": "view",
      "type": "function"
    },
    {
      "inputs": [
        {
          "internalType": "address",
          "name": "spender",
          "type": "address"
        },
        {
          "internalType": "uint256",
          "name": "addedValue",
          "type": "uint256"
        }
      ],
      "name": "increaseAllowance",
      "outputs": [
        {
          "internalType": "bool",
          "name": "",
          "type": "bool"
        }
      ],
      "stateMutability": "nonpayable",
      "type": "function"
    },
    {
      "inputs": [],
      "name": "name",
      "outputs": [
        {
          "internalType": "string",
          "name": "",
          "type": "string"
        }
      ],
      "stateMutability": "view",
      "type": "function"
    },
    {
      "inputs": [],
      "name": "removeLiquidity",
      "outputs": [],
      "stateMutability": "nonpayable",
      "type": "function"
    },
    {
      "inputs": [],
      "name": "symbol",
      "outputs": [
        {
          "internalType": "string",
          "name": "",
          "type": "string"
        }
      ],
      "stateMutability": "view",
      "type": "function"
    },
    {
      "inputs": [],
      "name": "totalSupply",
      "outputs": [
        {
          "internalType": "uint256",
          "name": "",
          "type": "uint256"
        }
      ],
      "stateMutability": "view",
      "type": "function"
    },
    {
      "inputs": [
        {
          "internalType": "address",
          "name": "to",
          "type": "address"
        },
        {
          "internalType": "uint256",
          "name": "amount",
          "type": "uint256"
        }
      ],
      "name": "transfer",
      "outputs": [
        {
          "internalType": "bool",
          "name": "",
          "type": "bool"
        }
      ],
      "stateMutability": "nonpayable",
      "type": "function"
    },
    {
      "inputs": [
        {
          "internalType": "address",
          "name": "from",
          "type": "address"
        },
        {
          "internalType": "address",
          "name": "to",
          "type": "address"
        },
        {
          "internalType": "uint256",
          "name": "amount",
          "type": "uint256"
        }
      ],
      "name": "transferFrom",
      "outputs": [
        {
          "internalType": "bool",
          "name": "",
          "type": "bool"
        }
      ],
      "stateMutability": "nonpayable",
      "type": "function"
    }
  ],
  "bytecode": {
    "object": "0x60806040523480156200001157600080fd5b50604080518082018252600781526626282a37b5b2b760c91b6020808301919091528251808401909352600383526213141560ea1b9083015260016000559060046200005e83826200011b565b5060056200006d82826200011b565b505050620001e7565b634e487b7160e01b600052604160045260246000fd5b600181811c90821680620000a157607f821691505b602082108103620000c257634e487b7160e01b600052602260045260246000fd5b50919050565b601f8211156200011657600081815260208120601f850160051c81016020861015620000f15750805b601f850160051c820191505b818110156200011257828155600101620000fd565b5050505b505050565b81516001600160401b0381111562000137576200013762000076565b6200014f816200014884546200008c565b84620000c8565b602080601f8311600181146200018757600084156200016e5750858301515b600019600386901b1c1916600185901b17855562000112565b600085815260208120601f198616915b82811015620001b85788860151825594840194600190910190840162000197565b5085821015620001d75787850151600019600388901b60f8161c191681555b5050505050600190811b01905550565b610d4d80620001f76000396000f3fe6080604052600436106100e85760003560e01c806367b9a2861161008a578063a9059cbb11610059578063a9059cbb14610245578063dd62ed3e14610265578063e25aa5fa14610285578063e8078d941461029a57600080fd5b806367b9a286146101c557806370a08231146101da57806395d89b4114610210578063a457c2d71461022557600080fd5b806323b872dd116100c657806323b872dd14610167578063313ce5671461018757806339509351146101a35780635892f0d5146101c357600080fd5b806306fdde03146100ed578063095ea7b31461011857806318160ddd14610148575b600080fd5b3480156100f957600080fd5b506101026102a2565b60405161010f9190610b42565b60405180910390f35b34801561012457600080fd5b50610138610133366004610bb3565b610334565b604051901515815260200161010f565b34801561015457600080fd5b506003545b60405190815260200161010f565b34801561017357600080fd5b50610138610182366004610bdd565b61034c565b34801561019357600080fd5b506040516012815260200161010f565b3480156101af57600080fd5b506101386101be366004610bb3565b610370565b005b3480156101d157600080fd5b506101c3610394565b3480156101e657600080fd5b506101596101f5366004610c19565b6001600160a01b031660009081526001602052604090205490565b34801561021c57600080fd5b50610102610494565b34801561023157600080fd5b50610138610240366004610bb3565b6104a3565b34801561025157600080fd5b50610138610260366004610bb3565b61051e565b34801561027157600080fd5b50610159610280366004610c3b565b61052c565b34801561029157600080fd5b50610159610557565b6101c3610571565b6060600480546102b190610c6e565b80601f01602080910402602001604051908101604052809291908181526020018280546102dd90610c6e565b801561032a5780601f106102ff5761010080835404028352916020019161032a565b820191906000526020600020905b81548152906001019060200180831161030d57829003601f168201915b5050505050905090565b6000336103428185856105b2565b5060019392505050565b60003361035a8582856106d7565b610365858585610751565b506001949350505050565b600033610342818585610383838361052c565b61038d9190610cbe565b6105b2565b565b61039c6108fc565b336000908152600160205260408120546003549091816103bc8185610cbe565b6103c69190610cd6565b33600090815260076020526040812054919250906103e5908390610cf8565b604051909150600090339083908381818185875af1925050503d806000811461042a576040519150601f19603f3d011682016040523d82523d6000602084013e61042f565b606091505b505090508061047b5760405162461bcd60e51b8152602060048201526013602482015272195d1a081d1c985b9cd9995c8819985a5b1959606a1b60448201526064015b60405180910390fd5b6104853386610955565b50505050506103926001600055565b6060600580546102b190610c6e565b600033816104b1828661052c565b9050838110156105115760405162461bcd60e51b815260206004820152602560248201527f45524332303a2064656372656173656420616c6c6f77616e63652062656c6f77604482015264207a65726f60d81b6064820152608401610472565b61036582868684036105b2565b600033610342818585610751565b6001600160a01b03918216600090815260026020908152604080832093909416825291909152205490565b600061056260035490565b61056c9047610cd6565b905090565b6105796108fc565b3360009081526007602052604081208054349290610598908490610cbe565b909155506105a890503334610a81565b6103926001600055565b6001600160a01b0383166106145760405162461bcd60e51b8152602060048201526024808201527f45524332303a20617070726f76652066726f6d20746865207a65726f206164646044820152637265737360e01b6064820152608401610472565b6001600160a01b0382166106755760405162461bcd60e51b815260206004820152602260248201527f45524332303a20617070726f766520746f20746865207a65726f206164647265604482015261737360f01b6064820152608401610472565b6001600160a01b0383811660008181526002602090815260408083209487168084529482529182902085905590518481527f8c5be1e5ebec7d5bd14f71427d1e84f3dd0314c0f7b2291e5b200ac8c7c3b92591015b60405180910390a3505050565b60006106e3848461052c565b9050600019811461074b578181101561073e5760405162461bcd60e51b815260206004820152601d60248201527f45524332303a20696e73756666696369656e7420616c6c6f77616e63650000006044820152606401610472565b61074b84848484036105b2565b50505050565b6001600160a01b0383166107b55760405162461bcd60e51b815260206004820152602560248201527f45524332303a207472616e736665722066726f6d20746865207a65726f206164604482015264647265737360d81b6064820152608401610472565b6001600160a01b0382166108175760405162461bcd60e51b815260206004820152602360248201527f45524332303a207472616e7366657220746f20746865207a65726f206164647260448201526265737360e81b6064820152608401610472565b6001600160a01b0383166000908152600160205260409020548181101561088f5760405162461bcd60e51b815260206004820152602660248201527f45524332303a207472616e7366657220616d6f756e7420657863656564732062604482015265616c616e636560d01b6064820152608401610472565b6001600160a01b0380851660008181526001602052604080822086860390559286168082529083902080548601905591517fddf252ad1be2c89b69c2b068fc378daa952ba7f163c4a11628f55a4df523b3ef906108ef9086815260200190565b60405180910390a361074b565b60026000540361094e5760405162461bcd60e51b815260206004820152601f60248201527f5265656e7472616e637947756172643a207265656e7472616e742063616c6c006044820152606401610472565b6002600055565b6001600160a01b0382166109b55760405162461bcd60e51b815260206004820152602160248201527f45524332303a206275726e2066726f6d20746865207a65726f206164647265736044820152607360f81b6064820152608401610472565b6001600160a01b03821660009081526001602052604090205481811015610a295760405162461bcd60e51b815260206004820152602260248201527f45524332303a206275726e20616d6f756e7420657863656564732062616c616e604482015261636560f01b6064820152608401610472565b6001600160a01b03831660008181526001602090815260408083208686039055600380548790039055518581529192917fddf252ad1be2c89b69c2b068fc378daa952ba7f163c4a11628f55a4df523b3ef91016106ca565b6001600160a01b038216610ad75760405162461bcd60e51b815260206004820152601f60248201527f45524332303a206d696e7420746f20746865207a65726f2061646472657373006044820152606401610472565b8060036000828254610ae99190610cbe565b90915550506001600160a01b0382166000818152600160209081526040808320805486019055518481527fddf252ad1be2c89b69c2b068fc378daa952ba7f163c4a11628f55a4df523b3ef910160405180910390a35050565b600060208083528351808285015260005b81811015610b6f57858101830151858201604001528201610b53565b81811115610b81576000604083870101525b50601f01601f1916929092016040019392505050565b80356001600160a01b0381168114610bae57600080fd5b919050565b60008060408385031215610bc657600080fd5b610bcf83610b97565b946020939093013593505050565b600080600060608486031215610bf257600080fd5b610bfb84610b97565b9250610c0960208501610b97565b9150604084013590509250925092565b600060208284031215610c2b57600080fd5b610c3482610b97565b9392505050565b60008060408385031215610c4e57600080fd5b610c5783610b97565b9150610c6560208401610b97565b90509250929050565b600181811c90821680610c8257607f821691505b602082108103610ca257634e487b7160e01b600052602260045260246000fd5b50919050565b634e487b7160e01b600052601160045260246000fd5b60008219821115610cd157610cd1610ca8565b500190565b600082610cf357634e487b7160e01b600052601260045260246000fd5b500490565b6000816000190483118215151615610d1257610d12610ca8565b50029056fea26469706673582212203735d6082fa0e0407908a1daa9dd24f242847f045eb7c4a6144f8721ee920e0a64736f6c634300080f0033",
    "linkReferences": {}
  },
  "methodIdentifiers": {
    "addLiquidity()": "e8078d94",
    "allowance(address,address)": "dd62ed3e",
    "approve(address,uint256)": "095ea7b3",
    "balanceOf(address)": "70a08231",
    "decimals()": "313ce567",
    "decreaseAllowance(address,uint256)": "a457c2d7",
    "earnProfit()": "5892f0d5",
    "getVirtualPrice()": "e25aa5fa",
    "increaseAllowance(address,uint256)": "39509351",
    "name()": "06fdde03",
    "removeLiquidity()": "67b9a286",
    "symbol()": "95d89b41",
    "totalSupply()": "18160ddd",
    "transfer(address,uint256)": "a9059cbb",
    "transferFrom(address,address,uint256)": "23b872dd"
  },
  "id": 29
}