{
  "abi": [
    {
      "inputs": [
        {
          "internalType": "contract ReadOnlyPool",
          "name": "_pool",
          "type": "address"
        }
      ],
      "stateMutability": "nonpayable",
      "type": "constructor"
    },
    {
      "inputs": [],
      "name": "lpTokenPrice",
      "outputs": [
        {
          "internalType": "uint256",
          "name": "",
          "type": "uint256"
        }
      ],
      "stateMutability": "view",
      "type": "function"
    },
    {
      "inputs": [],
      "name": "snapshotPrice",
      "outputs": [],
      "stateMutability": "nonpayable",
      "type": "function"
    }
  ],
  "bytecode": {
    "object": "0x608060405234801561001057600080fd5b506040516101b13803806101b183398101604081905261002f91610054565b600080546001600160a01b0319166001600160a01b0392909216919091179055610084565b60006020828403121561006657600080fd5b81516001600160a01b038116811461007d57600080fd5b9392505050565b61011e806100936000396000f3fe6080604052348015600f57600080fd5b506004361060325760003560e01c8063c52cbd34146037578063fb76f708146051575b600080fd5b603f60015481565b60405190815260200160405180910390f35b60576059565b005b60008054906101000a90046001600160a01b03166001600160a01b031663e25aa5fa6040518163ffffffff1660e01b8152600401602060405180830381865afa15801560a9573d6000803e3d6000fd5b505050506040513d601f19601f8201168201806040525081019060cb919060d0565b600155565b60006020828403121560e157600080fd5b505191905056fea2646970667358221220d3c1295511d7722f1c8ea45734385cee9e7a53034f6f96a770d195b7af08fd1364736f6c634300080f0033",
    "linkReferences": {}
  },
  "methodIdentifiers": {
    "lpTokenPrice()": "c52cbd34",
    "snapshotPrice()": "fb76f708"
  },
  "id": 29
}