{
  "abi": [
    {
      "inputs": [],
      "name": "attack",
      "outputs": [],
      "stateMutability": "nonpayable",
      "type": "function"
    },
    {
      "inputs": [],
      "name": "depositoor",
      "outputs": [
        {
          "internalType": "contract Depositoor",
          "name": "",
          "type": "address"
        }
      ],
      "stateMutability": "view",
      "type": "function"
    },
    {
      "inputs": [],
      "name": "nft",
      "outputs": [
        {
          "internalType": "contract NftToStake",
          "name": "",
          "type": "address"
        }
      ],
      "stateMutability": "view",
      "type": "function"
    },
    {
      "inputs": [
        {
          "internalType": "address",
          "name": "",
          "type": "address"
        },
        {
          "internalType": "address",
          "name": "",
          "type": "address"
        },
        {
          "internalType": "uint256",
          "name": "",
          "type": "uint256"
        },
        {
          "internalType": "bytes",
          "name": "",
          "type": "bytes"
        }
      ],
      "name": "onERC721Received",
      "outputs": [
        {
          "internalType": "bytes4",
          "name": "",
          "type": "bytes4"
        }
      ],
      "stateMutability": "nonpayable",
      "type": "function"
    },
    {
      "inputs": [
        {
          "internalType": "contract NftToStake",
          "name": "_nft",
          "type": "address"
        },
        {
          "internalType": "contract Depositoor",
          "name": "_depositoor",
          "type": "address"
        }
      ],
      "name": "setContracts",
      "outputs": [],
      "stateMutability": "nonpayable",
      "type": "function"
    },
    {
      "inputs": [],
      "name": "transfer",
      "outputs": [],
      "stateMutability": "nonpayable",
      "type": "function"
    }
  ],
  "bytecode": {
    "object": "0x608060405234801561001057600080fd5b5061035d806100206000396000f3fe608060405234801561001057600080fd5b50600436106100625760003560e01c8063150b7a02146100675780633bffcb631461009857806347ccca02146100c35780638a4068dd146100d65780639e5faafc146100e0578063d8952a49146100e8575b600080fd5b61007a61007536600461024f565b610124565b6040516001600160e01b031990911681526020015b60405180910390f35b6001546100ab906001600160a01b031681565b6040516001600160a01b03909116815260200161008f565b6000546100ab906001600160a01b031681565b6100de610195565b005b6100de610206565b6100de6100f63660046102ee565b600080546001600160a01b039384166001600160a01b03199182161790915560018054929093169116179055565b6001546040516324b1babf60e01b8152602a60048201526000916001600160a01b0316906324b1babf90602401600060405180830381600087803b15801561016b57600080fd5b505af115801561017f573d6000803e3d6000fd5b50630a85bd0160e11b9998505050505050505050565b600054600154604051632142170760e11b81523060048201526001600160a01b039182166024820152602a60448201529116906342842e0e906064015b600060405180830381600087803b1580156101ec57600080fd5b505af1158015610200573d6000803e3d6000fd5b50505050565b60015460405163d83ba73760e01b8152602a60048201526001600160a01b039091169063d83ba737906024016101d2565b6001600160a01b038116811461024c57600080fd5b50565b60008060008060006080868803121561026757600080fd5b853561027281610237565b9450602086013561028281610237565b935060408601359250606086013567ffffffffffffffff808211156102a657600080fd5b818801915088601f8301126102ba57600080fd5b8135818111156102c957600080fd5b8960208285010111156102db57600080fd5b9699959850939650602001949392505050565b6000806040838503121561030157600080fd5b823561030c81610237565b9150602083013561031c81610237565b80915050925092905056fea26469706673582212202390f619b40954fc8157d40233c39304cbb3bbc0731eea3d463bdbd954e7c86864736f6c634300080f0033",
    "linkReferences": {}
  },
  "methodIdentifiers": {
    "attack()": "9e5faafc",
    "depositoor()": "3bffcb63",
    "nft()": "47ccca02",
    "onERC721Received(address,address,uint256,bytes)": "150b7a02",
    "setContracts(address,address)": "d8952a49",
    "transfer()": "8a4068dd"
  },
  "id": 31
}